S0180000476363426F61726450726F6A656374322E737265630E
S113000029C0000043C0000040C000003EC0000002
S11300103CC000003AC0000038C0000036C00000F8
S113002034C0000032C0000030C000002EC0000008
S11300302CC000002AC0000028C0000026C0000018
S113004024C0000022C0000020C000001EC0000028
S11300501CC0000011241FBECFE5D4E0DEBFCDBF1D
S113006010E0A0E6B0E0E2E8F2E002C005900D92F4
S1130070AA36B107D9F720E0AAE6B0E001C01D9284
S1130080A237B207E1F71CD0FAC0BACF1F920F9281
S11300900FB60F92112410927100109270001092FA
S11300A06F0010926E0010926D0010926C0010920E
S11300B06B0010926A000F900FBE0F901F9018955E
S11300C0CF93DF93CDB7DEB72A970FB6F894DEBF90
S11300D00FBECDBF8FEF84BB8ABB84E081BB8AE0B7
S11300E0E0E6F0E0DE01119601900D928A95E1F7C9
S11300F08A98929A85B7826085BF85B78E7F85BFBF
S11301008BB780648BBF78946EE05DE04BE037E0A2
S113011085E090E0E0917000F0917100A1E0B0E022
S1130120AC0FBD1FEA0FFB1F20812BBB65BBBFEFCC
S1130130E9EF20E0B150E0402040E1F700C00000CA
S1130140E0916E00F0916F00A1E0B0E0AC0FBD1F34
S1130150EA0FFB1F20812BBB55BBBFEFE9EF20E06B
S1130160B150E0402040E1F700C00000E0916C0095
S1130170F0916D00A1E0B0E0AC0FBD1FEA0FFB1FD2
S113018020812BBB45BBBFEFE9EF20E0B150E0403D
S11301902040E1F700C00000E0916A00F0916B009C
S11301A0A1E0B0E0AC0FBD1FEA0FFB1F20812BBB09
S11301B035BBBFEFE9EF20E0B150E0402040E1F76C
S11301C000C00000019709F0A5CF809170009091C4
S11301D0710001969093710080937000809170007B
S11301E0909171000A9769F4109271001092700056
S11301F080916E0090916F00019690936F008093B0
S11302006E0080916E0090916F000A9769F41092CD
S11302106F0010926E0080916C0090916D000196B9
S113022090936D0080936C0080916C0090916D00B0
S11302300A9769F410926D0010926C0080916A0024
S113024090916B00019690936B0080936A0080916B
S11302506A0090916B000A9709F05ACF10926B00D4
S113026010926A0010926D0010926C0010926F0050
S113027010926E00109271001092700049CFF894A1
S1050280FFCFAA
S10D02823F065B4F666D7D077F6742
S9030000FC
