S0180000476363426F61726450726F6A656374332E737265630D
S113000029C0000043C0000040C000003EC0000002
S11300103CC000003AC0000038C0000036C00000F8
S113002034C0000032C0000030C000002EC0000008
S11300302CC000002AC0000028C0000026C0000018
S113004024C0000022C0000020C000001EC0000028
S11300501CC0000011241FBECFE5D4E0DEBFCDBF1D
S113006010E0A0E6B0E0E2E2F1E002C005900D92FB
S1130070AA36B107D9F720E0AAE6B0E001C01D9284
S1130080AB36B207E1F720D04AC0BACF1F920F9225
S11300900FB60F9211242F938F939F9380916A0030
S11300A08F5F80936A002FE789EA93E021508040B4
S11300B09040E1F700C000009F918F912F910F9025
S11300C00FBE0F901F901895CF93DF93CDB7DEB777
S11300D02A970FB6F894DEBF0FBECDBF81E081BB77
S11300E08FEF8ABB84E082BB80E48BBF83E085BF53
S11300F078948AE0E0E6F0E0DE01119601900D923A
S11301008A95E1F780916A00E1E0F0E0EC0FFD1FD1
S1130110E80FF11D87FDFA9580818BBBF3CFF8942E
S1050120FFCF0B
S10D01223F065B4F666D7D077F67A3
S9030000FC
