S01C000050726F796563746F2D456D62656269646F732D312E737265639E
S113000029C0000042C0000078C100003EC00000CA
S11300103CC000003AC0000039C0000036C00000F7
S113002034C0000032C0000030C000002EC0000008
S11300302CC000002AC0000028C0000026C0000018
S113004024C0000022C0000020C000001EC0000028
S11300501CC0000011241FBECFE5D4E0DEBFCDBF1D
S113006010E0A0E6B0E0E2E9F6E002C005900D92EF
S1130070A037B107D9F720E0A0E7B0E001C01D9296
S1130080A73DB207E1F70ED202C3BACF1F920F9277
S11300900FB60F9211248F9381E0809370008F919B
S11300A00F900FBE0F901F90189581B38A7A81BB71
S11300B082B3856582BB8AB38F608ABB87B38F6145
S11300C087BB8AB3806F8ABB8BB780688BBF85B7C9
S11300D0886085BF8EB58D608EBD88E09DE39BBD35
S11300E08ABD89B7806189BF789408952DEC829F79
S11300F0212D1124922F969596959695990F392F27
S1130100330F330F930F891B982FD898D99A2695BC
S11301102695269530E0F901EA59FF4F808180FF4A
S113012002C0DB9A01C0DB98F901EA59FF4F8081D4
S113013081FF02C0DA9A01C0DA98F901EA59FF4F47
S1130140808182FF02C0C09A01C0C098F901EA59B7
S1130150FF4F808183FF02C0C19A01C0C198F90199
S1130160EA59FF4F808184FF02C0C29A01C0C2983D
S1130170F901EA59FF4F808185FF02C0C39A01C08B
S1130180C398F901EA59FF4F808186FF02C0C49ADF
S113019001C0C498EFE1FEE43197F1F700C000001C
S11301A0D89AD998892F90E0FC01EA59FF4F208111
S11301B020FF02C0DB9A01C0DB98FC01EA59FF4F23
S11301C0208121FF02C0DA9A01C0DA98FC01EA59C1
S11301D0FF4F208122FF02C0C09A01C0C098FC01D9
S11301E0EA59FF4F208123FF02C0C19A01C0C19880
S11301F0FC01EA59FF4F208124FF02C0C29A01C0CA
S1130200C298FC01EA59FF4F208125FF02C0C39A1E
S113021001C0C398FC01EA59FF4F808186FF02C0E8
S1130220C49A01C0C4988FE19EE40197F1F700C01D
S1130230000008950F931F93CF93DF93C0E0D0E0A5
S11302408E01BAD183709078992324F401978C6F2E
S11302509F6F0196F801ED58FF4F80832196C336B6
S1130260D10571F7DF91CF911F910F910895E0911E
S11302707100F0E0ED58FF4F9081981320C08091F9
S113028071008F5F8093710090917100809165007F
S1130290981318C0809165008F5F809365008091EA
S11302A06500843618F083E68093650080916500CC
S11302B01DDF1092710081E080936400089581E055
S11302C080937000089581E080936500109271001E
S11302D0809364001092720010927000ABDF8091E2
S11302E0650004CF08951DBC1CBC89B7806189BF1B
S11302F0089589B78F7E89BF08951F920F920FB614
S11303000F9211242F933F934F935F936F937F9397
S11303108F939F93AF93BF93EF93FF938091640068
S1130320811130C0E6DF80916500E0DE1DBC1CBC9D
S11303302FE788E391E0215080409040E1F700C02E
S1130340000080B38095857580937200809172005F
S113035080FF03C080E08BDF14C08091720082FFB5
S113036003C081E084DF0DC08091720084FF03C06C
S113037082E07DDF06C08091720086FF02C083E0C8
S113038076DFB1DFFF91EF91BF91AF919F918F9194
S11303907F916F915F914F913F912F910F900FBE7D
S11303A00F901F901895A5DF2FEF64E674E021509D
S11303B060407040E1F700C0000080916500882330
S11303C009F46CC080E050E240E130E420E8E82F1A
S11303D0F0E0ED58FF4F90819130E1F030F0923031
S11303E071F1933009F440C053C04BBB9FEF62E5F9
S11303F077E0915060407040E1F700C00000DC9865
S11304009FEF62E577E0915060407040E1F700C0F3
S113041000003EC05BBB9FEF62E577E09150604017
S11304207040E1F700C00000DD989FEF62E577E0DF
S1130430915060407040E1F700C0000029C03BBB10
S11304409FEF62E577E0915060407040E1F700C0B3
S11304500000DE989FEF62E577E0915060407040C5
S1130460E1F700C0000014C02BBB9FEF62E577E00A
S1130470915060407040E1F700C00000DF989FEFAA
S113048062E577E0915060407040E1F700C0000001
S11304908F5F90916500891708F499CF10926400DA
S11304A022CF089502DEC6DE7EDF809165001EDE67
S11304B080916400882321F08BB38F708BBB73DF32
S11304C0809902C0DC9A01C0DC98829902C0DD9A4E
S11304D001C0DD98849902C0DE9A01C0DE98869935
S11304E002C0DF9A01C0DF98809170008823E9F28E
S11304F095E08BB3806F8BBB2FEF32E587E0215003
S113050030408040E1F700C000008BB38F708BBB9C
S11305102FEF32E587E0215030408040E1F700C002
S11305200000915031F7CFDEC0CF8F929F92AF92EF
S1130530BF92CF92DF92EF92FF92CF93DF93EC01C1
S1130540688179818A819B81611571058105910595
S113055021F464E279ED8BE597E02DE133EF41E09E
S113056050E038D049015A019B01AC01A7EAB1E43B
S11305704DD06B017C01ACEEB4EFA501940152D0D7
S1130580DC01CB018C0D9D1DAE1DBF1DB7FF03C04B
S11305900197A109B04888839983AA83BB839F7775
S11305A0DF91CF91FF90EF90DF90CF90BF90AF900D
S11305B09F908F900895B9CF80E690E0B6CFA0E0E9
S11305C0B0E08093600090936100A0936200B093C8
S11305D063000895052E97FB16F400940FD057FD81
S11305E005D024D007FC02D046F408C050954095AD
S11305F0309521953F4F4F4F5F4F089590958095CB
S1130600709561957F4F8F4F9F4F089531D0A59F6F
S1130610900DB49F900DA49F800D911D11240895F9
S1130620B7FFF4CFF3DF821B930B0895A1E21A2ED8
S1130630AA1BBB1BFD010DC0AA1FBB1FEE1FFF1F82
S1130640A217B307E407F50720F0A21BB30BE40BD2
S1130650F50B661F771F881F991F1A9469F7609519
S11306607095809590959B01AC01BD01CF010895D3
S1130670A29FB001B39FC001A39F700D811D1124DF
S1130680911DB29F700D811D1124911D0895F89440
S1050690FFCF96
S11306920100000001013F065B4F666D7D077F6725
S9030000FC
